:020000040800F2
:100000009804002011270008892600088B26000884
:1000100000000000000000000000000000000000E0
:100020000000000000000000000000008F26000813
:100030000000000000000000912600089326000840
:1000400013170008731F0008CB260008D7260008E6
:1000500059270008531B0008B51B0008151C000891
:100060005B2700085D2700089D2600085F27000821
:100070006127000863270008652700086727000834
:100080006927000800000000000000006B2700083E
:10009000000000006D2700086F2700087127000886
:1000A0000000000073270008752700087727000864
:1000B00079270008000000007B270008952600082B
:1000C00070B504000E0000257078002820D00128AB
:1000D00028D0032821D005280BD0062804D00828D2
:1000E00011D009280AD022E03100200000F0FDF8EC
:1000F00021E03100200000F098F91CE031002000E0
:1001000000F0BDF917E03100200000F017FA12E00E
:100110003100200000F036FA0DE03100200000F040
:100120004EFA08E03100200000F05BFA03E03100F5
:10013000200000F089FA2800C0B270BD70B504003C
:100140000E000025A078032819D1B088C0B202287B
:1001500010DA31002000B822A258926890470500BA
:10016000F08800280AD1EDB2002D07D1200000F060
:10017000ECFA03E03100200000F066FA03E0310001
:10018000200000F061FA2800C0B270BDF8B504008C
:100190000E00002000900027B0880500707800282D
:1001A00062D0012831D0032800D09BE0A07802283B
:1001B00002D003280CD023E0EDB2002D07D0EDB221
:1001C000802D04D02900C9B2200000F0B8FC1BE04B
:1001D000708800280AD1EDB2002D07D0EDB2802D35
:1001E00004D02900C9B2200000F0A9FC3100200091
:1001F000B822A25892689047200000F0A6FA03E0C7
:100200003100200000F020FA6CE0A078022802D033
:1002100003280CD023E0EDB2002D07D0EDB2802DE5
:1002200004D02900C9B2200000F089FC1BE07088CE
:1002300000280AD1EDB2002D07D0EDB2802D04D0F8
:100240002900C9B2200000F0C1FC31002000B82212
:10025000A25892689047200000F077FA03E031003E
:10026000200000F0F1F93DE0A078022802D0032838
:100270000CD032E0EDB2002D07D0EDB2802D04D0CD
:100280002900C9B2200000F05AFC2AE0EDB228068D
:100290000ED5EDB26806400E282148432018807E16
:1002A000002802D00120009011E0002000900EE014
:1002B00028060CD4EDB22820684320186A21405C3F
:1002C000002802D00120009001E0002000900222CE
:1002D0006946200000F0EFF903E03100200000F053
:1002E000B3F9FFE73800C0B2F2BD70B582B00400C8
:1002F0000D00688880B2000AC0B2012808D0022828
:1003000015D003281ED0062865D0072868D06CE0D9
:100310006946E068C0B2C022A25812689047060041
:10032000E888402802D108206946088062E06946D2
:10033000E068C0B2B822A258126A90470600C420F2
:10034000265057E06888C0B2002808D0022818D08C
:100350000ED3042827D01DD305282DD035E06946BB
:10036000E068C0B2C022A25852689047060031E04F
:100370006946E068C0B2C022A25892689047060061
:1003800028E06946E068C0B2C022A258D26890470F
:1003900006001FE06946E068C0B2C022A258126998
:1003A0009047060016E06946E068C0B2C022A25835
:1003B0005269904706000DE06946E068C0B2C0226D
:1003C000A25892699047060004E02900200000F03E
:1003D0003BF929E00EE02900200000F035F923E088
:1003E0002900200000F030F91EE02900200000F074
:1003F0002BF919E068460088002815D0E888002805
:1004000012D068460088E988884204D2684600888D
:100410006946088002E0E8886946088068460288E4
:100420003100200000F047F973BD70B504000E00E4
:10043000B08800281ED1F08800281BD1B078400673
:10044000400E0500A078032804D13100200000F000
:10045000FBF813E02571EDB236480560200000F08E
:1004600074F9EDB2002D02D00220A07006E0012048
:10047000A07003E03100200000F0E6F870BD38B550
:1004800004000D0068882C4908702B480078022869
:1004900004DB2900200000F0D7F84AE0A078022809
:1004A00002D0032816D040E02348007800280DD061
:1004B0002148007820700320A0701F480178200098
:1004C00000F028FD200000F040F902E0200000F0DC
:1004D0003CF92EE01848007800280DD10220A070C9
:1004E00015480078207014480178200000F022FDA3
:1004F000200000F02AF917E00F48007821788842A0
:100500000FD02178200000F015FD0B4800782070F6
:1005100009480178200000F0FDFC200000F015F9EA
:1005200002E0200000F011F903E02900200000F0B3
:100530008BF831BD381600204616002038B504006F
:100540000D0000200090E888012804D02900200038
:1005500000F07AF815E0A078022802D0032806D02F
:100560000BE001226946200000F0A5F809E0012215
:100570002100200000F09FF803E02900200000F097
:1005800063F831BD38B504000D0000200090A0785C
:10059000801E01280ED801200090A068002803D0FA
:1005A000009802210143009102226946200000F0D8
:1005B00082F803E02900200000F046F831BD38B58C
:1005C00005000C00608801280AD10120A8602100E4
:1005D0002800B822AA5892689047280000F0B5F881
:1005E00031BD38B505000C00A878801E01280ED852
:1005F000608801280AD10020A86021002800B822C4
:10060000AA5892689047280000F09FF803E0210064
:10061000280000F019F831BD027C0A70427C4A7053
:10062000827CC37C1B02D2184A80027D437D1B0260
:10063000D2188A80827DC37D1B02D218CA80CA88E4
:10064000C26301224270704738B504000D000021DA
:10065000200000F074FA31BDF8B504000D00170059
:100660000026002C1BD0200000F01AF8022148437D
:10067000801C38803888F6B2A855761C0320F6B264
:10068000A855761C2078002809D02078F6B2A85505
:10069000641C761C0020F6B2A855761CF2E7F1BD6A
:1006A00000B5010000200A78002A02D0401C491C35
:1006B000F9E7C0B200BDF8B505000F001400002630
:1006C000A4B2AC63A4B26C6302206870A4B223002D
:1006D0003A000021280000F0DBF93000C0B2F2BD82
:1006E000F8B507000E0014000025A4B22300320064
:1006F0000021380000F0CCF92800C0B2F2BDF8B5F6
:1007000005000F0014000026A4B288202C50A4B2CB
:1007100084202C500320687023009BB23A000021F3
:10072000280000F07BF93000C0B2F2BDF8B5070038
:100730000E001400002523009BB232000021380077
:1007400000F06CF92800C0B2F2BD38B505000024F5
:1007500004206870002300220021280000F098F98E
:100760002000C0B232BD38B50500002405206870F5
:10077000002300220021280000F050F92000C0B220
:1007800032BD7047704770477047704710B504001E
:100790000120A070002020710020A0600120E060F6
:1007A000012000F0D3FB002000F0D0FB002000F07F
:1007B000D1FB002000F0D2FBBF20000203490860FB
:1007C0000248006880B200F0C1FB10BD2016002076
:1007D00070B5040089B2080608D589B24806400EF3
:1007E0002826704320181830050007E089B2480613
:1007F000400E2826704320186830050092B2002A67
:1008000004D10020A8721800A88006E00120A87278
:100810001800E8801800000C2881002070BDF8B591
:1008200006000D001700ADB228060AD5ADB2680665
:10083000400E282148433018183004000120607011
:1008400009E0ADB26806400E2821484330186830F0
:10085000040000206070BFB2E76068460078E07076
:1008600028004006400E20702078002805D1002086
:1008700060620020E06100202062002020610020F2
:1008800060610020A0610020A070E078002805D001
:10089000022809D013D303280BD015E0802189004A
:1008A000207800F067FB0FE00021207800F062FB69
:1008B0000AE0C021C900207800F05CFB04E0802140
:1008C000C900207800F056FBA07A002820D160787B
:1008D00000280BD0A188207800F008FC207800F0D8
:1008E000EEFB2021207800F056FB40E0A188207824
:1008F00000F010FCE16889B2207800F025FC207837
:1009000000F0C6FBC0218901207800F060FB2EE0DA
:10091000207800F07AFB2289E188207800F054FCEE
:100920006078002812D1207800F0B2FB207800F027
:10093000C6FB207800F09CFBC0218901207800F0E4
:1009400046FB0021207800F026FB10E0207800F024
:100950009FFB207800F0B3FB207800F075FB0021AE
:10096000207800F018FB0021207800F030FB0020F8
:10097000F2BD70B506000C00E4B2200608D5E4B262
:100980006006400E2821484330181830050007E063
:10099000E4B26006400E2821484330186830050054
:1009A000A87A002812D16878002807D0287800F0AB
:1009B00086FB0021287800F0EEFA2DE0287800F080
:1009C00067FB0021287800F002FB25E0687800280A
:1009D00011D1287800F05CFB287800F070FB2878B3
:1009E00000F046FB0021287800F0F1FA0021287879
:1009F00000F0D1FA10E0287800F04AFB287800F0E7
:100A00005EFB287800F020FB0021287800F0C3FA74
:100A10000021287800F0DBFA002070BDF8B582B024
:100A200007000E00150000200090F6B27006400E80
:100A30002821484338186830040025616846008939
:100A400060610020A061E0686169884206D2E068C8
:100A5000009060690099401A606103E0606900904D
:100A600000206061A07A002805D1009989B2207821
:100A700000F06AFB05E0009A92B26178207800F0FD
:100A8000CBFBC0218901207800F0A1FA0020FEBD37
:100A9000F9B581B00E001700002000900198F6B261
:100AA0007106490E28225143401818300400700680
:100AB000400E20702761029860610020A061E0680C
:100AC0006169884206D2E068009060690099401A26
:100AD000606103E06069009000206061A07A0028F6
:100AE0000BD1009A92B2A188206900F048FC0099CD
:100AF00089B2207800F01DFB1BE00025009A92B21D
:100B00006178207800F088FB207800F02CFA40060D
:100B100002D52089050001E0E0880500009A92B224
:100B2000290089B2206900F02AFC6178207800F061
:100B300001FC3021207800F02EFA0020FEBD70B5B7
:100B400006000C00E4B2200608D5E4B26006400EB0
:100B50002821484330181830050005E0E4B2282069
:100B60006043301868300500287800281BD14449BC
:100B70002A7804235A43895889B2424A0A4010000D
:100B8000010080204001484001001020484080B210
:100B90003D4901433A482A7804235A4381500120B1
:100BA000A870002011E06878002806D00120A87005
:100BB0001021287800F0EFF906E00120A8708021CC
:100BC0004901287800F003FA002070BD70B50600D6
:100BD0000C00E4B2200608D5E4B26006400E2821DD
:100BE000484330181830050005E0E4B2282060437F
:100BF0003018683005006878002809D0287800F09F
:100C00005EFA3021287800F0C6F90020A87009E0CB
:100C1000287800F03DFAC0218901287800F0D7F942
:100C20000020A870002070BD70B500220171002363
:100C30001A00022A14D2124B1400E4B204256C43A9
:100C40001B59124C1C401300DBB223430E4C1C43B7
:100C50000B4B1500EDB2042675435C51521CE8E7BE
:100C6000C9B280230B430A4C236070BD094909684F
:100C7000802212020A4307490A60012181707047ED
:100C8000005C0040BFBF0000808000008F8F00002C
:100C90004C5C0040585C0040F8B504000F001500A3
:100CA0001E00200000F0F5FB200000F016F8B82030
:100CB0002550BC202650C020275000F062FC2000A8
:100CC000FFF764FDBC20205800688047200000F03A
:100CD00017FC2000FFF7CAFFF1BD0100002070479C
:100CE0001CB5040069462000FFF796FC68460078B2
:100CF000C006C00EC0B2002803D002280BD005D316
:100D00000EE069462000FFF7DBF910E0694620009D
:100D1000FFF714FA0BE069462000FFF737FA06E008
:100D200068460178802001402000FFF708FF00207E
:100D300016BD70B504000E00F6B2002E2BD12000B7
:100D4000683005006078032834D1E868E969884292
:100D500010D2E869E968401AE861E869E968884200
:100D600001D2EA6900E0EA6892B229692000FFF73F
:100D7000DDFC1FE0B82020580069002807D0A078CB
:100D8000032804D12000B821615809698847200050
:100D9000FFF7DBFC0EE0B82020588069002809D05E
:100DA000A078032806D13100C9B22000B822A25889
:100DB00092699047002070BD70B504000E00F6B235
:100DC000002E4CD12000183005006078022835D163
:100DD000E868E96988420AD2E869E968401AE86186
:100DE000EA6992B229692000FFF77AFC46E0286A96
:100DF000E96800F036FC00290FD1286AE9688842CA
:100E00000BD3286A696A884207D200220021200099
:100E1000FFF766FC0020686230E0B8202058C06808
:100E2000002807D0A078032804D12000B8216158F9
:100E3000C96888472000FFF796FC1FE06078042807
:100E40001CD10F480068002818D00D480168C9B2AD
:100E50002000FFF7E9FE0020094908600EE0B820F5
:100E600020584069002809D0A078032806D1310015
:100E7000C9B22000B822A25852699047002070BD24
:100E80003816002010B50400402300220021200065
:100E9000FFF79EFC8023002280212000FFF798FCB2
:100EA0000023402200212000FFF7B9FC002340224C
:100EB00080212000FFF7B3FC0120A070E068C0B2E1
:100EC000BC21615849688847002010BD10B5040056
:100ED000BC20205800698047E078A070002010BD39
:100EE00010B50400A078E0700420A070BC20205849
:100EF000C0688047002010BD10B50400B8202058FD
:100F0000C069002804D02000B8216158C969884709
:100F1000002010BD38B505000C002100C9B2280022
:100F2000B822AA5812689047BC2028588068804789
:100F3000002032BD38B505000C002100C9B22800E0
:100F4000B822AA5852689047002032BD80B2384972
:100F50000860704780B238490860704733490140E3
:100F6000374A116070474049C0B2042250430858C4
:100F700080B2704710B43C4AC0B204234343D258F5
:100F80002C4B13400B439BB2374AC0B2042444435A
:100F9000135110BC704710B5334BC0B20424444306
:100FA0001B59264C1C402200CB0602D513001022F0
:100FB0005A408B0602D5130020225A40214B13437E
:100FC0009BB2294AC0B204244443135110BD10B54A
:100FD000254BC0B2042444431B59244C1C4022001E
:100FE000CB0403D51300802252015A408B0403D551
:100FF0001300802292015A40124B13439BB21A4AAB
:10100000C0B204244443135110BD1749C0B2042296
:10101000424389583D4A0A403D49114389B2124A28
:10102000C0B204234343D15070470000F8FF0000D2
:10103000405C00408F890000445C0040BF8F00008E
:10104000505C0040808000000749C0B20422424347
:1010500089582E4A0A406C491143034AC0B20423FE
:101060004343D15070470000005C00408FBF000038
:101070006749C0B2042242438958244A0A4063495E
:101080001143634AC0B204234343D1507047000068
:1010900000B55F49C0B204224243895849040DD5C6
:1010A0005B49C0B2042242438958184A0A40564953
:1010B0001143574AC0B204234343D15000BD00B589
:1010C0005349C0B204224243895849060DD55049BC
:1010D000C0B20422424389580C4A0A404B4911438A
:1010E0004B4AC0B204234343D15000BD494A126861
:1010F00092B2C0B208234343D2187C4BD2180B00E3
:101100009BB25B085B001380704700008F8F00006C
:10111000808100003F4A126892B2C0B20823434364
:10112000D218734BD2180B009BB25B085B00138084
:101130007047384A126892B2C0B208234343D218AB
:101140006C4BD2181180704710B5324B1B689BB2A4
:10115000C0B2082444431B196E4C1B191A0089B2F3
:101160003F290CDB0C00A4B264092300CC0600D19B
:101170005B1E9B02802424021C43148008E00C00A8
:10118000A4B264082300CC0700D55B1C9B0213802B
:1011900010BD2049096889B2C0B20822504308181E
:1011A0005449401800888005800D70471949096826
:1011B00089B2C0B208225043081856494018008826
:1011C0008005800D7047000010B4124B1B689BB265
:1011D000C0B2082444431B19444C1B190C00A4B290
:1011E000640864001C800B4B1B689BB2C0B20824CF
:1011F00044431B193E4C1B191400A4B2640864003C
:101200001C8010BC7047000080C00000C08000003F
:10121000005C0040505C004030B5C9B2002923D1C9
:10122000654C2468A4B2C0B2082545436419314D09
:101230006419230092B23F2A0CDB1500ADB26D0990
:101240002C00D50600D1641EA40280252D02254362
:101250001D8016E01500ADB26D082C00D50700D535
:10126000641CA4021C800CE0C9B2012909D1524BB4
:101270001B689BB2C0B2082444431B191D4C1B19A8
:101280001A80C9B2002923D14B4C2468A4B2C0B241
:10129000082545436419544D6419230092B23F2A2E
:1012A0000CDB1500ADB26D092C00D50600D1641E13
:1012B000A40280252D0225431D8016E01500ADB245
:1012C0006D082C00D50700D5641CA4021C800CE01E
:1012D000C9B2012909D1384B1B689BB2C0B208249E
:1012E00044431B19404C1B191A8030BD006000405C
:1012F00004600040026000402F49096889B2C0B212
:101300000822504308182D49401800888005800D98
:1013100070470000066000402749096889B2C0B2E2
:101320000822504308183049401800888005800D75
:101330007047000010B5C9B200290ED12B4AC0B2C7
:1013400004234343D2582A4B13402A4A1A43274BBB
:10135000C0B2042444431A5110E0C9B201290DD18E
:10136000224AC0B204234343D258214B1340224A9D
:101370001A431E4BC0B2042444431A5110BDF3B5A6
:1013800092B21100491C491000916E46B6881B4F5D
:10139000F6193500009E310000290BD00678330085
:1013A000401C067836021E4334002C80AD1C401CC5
:1013B000491EF1E7F3BD0000505C004002600040B0
:1013C00070B592B213005B1C5B1089B20B4E8E1984
:1013D00035001C00002C06D02E880680AD1C401C59
:1013E000401C641EF6E770BD06600040005C0040D3
:1013F0008F8F0000C080000080C0000000600040AF
:101400000121C206D20E9140364A11607047F0B5F4
:1014100040B2002821D5344C40B20207120F083ADE
:10142000950804225543304A40B203071B0F083B7E
:101430009B0804267343D258FF238607B60F08275C
:101440007E43B3409A438B01DBB28607B60F082771
:101450007E43B340134363511AE0244A40B28308E9
:1014600004246343D258FF238407A40F08256C4348
:10147000A3409A438B01DBB28407A40F08256C4379
:10148000A3401343194A40B2840804256C43135106
:10149000F0BD17490968802212040A4314490A6002
:1014A00013490968802212050A4311490A6011494B
:1014B0000968114A0A400F490A600E4909688022EA
:1014C00092050A430B490A600C49096840220A4305
:1014D0000A490A600949096820220A4307490A6043
:1014E0007047000000E100E01CED00E000E400E0D7
:1014F0001C100240046C0040FFFFFFCF006C004056
:1015000010B5040001211F20FFF781FF1F20FFF706
:1015100077FF10BD020012200880264870470200A5
:10152000042008802448704738B504000D002A00C4
:1015300022492348FFF790F8204832BD38B504000F
:101540000D002A001D491F48FFF786F81B4832BDD1
:1015500002001A2008801C48704738B504000D00AE
:101560002A0016491948FFF777F8144832BD38B5F4
:1015700004000D002A0011491548FFF76DF80F48C7
:1015800032BD70B5134800680400134800680600B7
:101590001248006805006419002C09D0082210497F
:1015A000200000F021F804220E49300000F01CF861
:1015B00070BD0000EC26000854270008E01500204C
:1015C0004C27000820270008600000202C27000876
:1015D00000270008ACF7FF1FB0F7FF1FB4F7FF1F8D
:1015E000620000207200002030B500230024230098
:1015F0001C001500E4B2EDB2AC4218D2040F0A2C64
:1016000006D2040F3034DBB202255D434C5505E0B1
:10161000040F3734DBB202255D434C550001002432
:10162000DBB202255D434D196C705B1CE0E730BDF9
:10163000F446002804D4494200F013F840426047C1
:101640004042002905D45FD000F00BF840424942E7
:101650006047494200F005F84942604703460B43A2
:10166000E6D40022030A8B420BD203098B4219D223
:1016700043088B422ED2411A00D2014652411046F5
:101680007047FF2209023FD012068B4205D3121287
:1016900009028B4201D31212090203098B4219D3AA
:1016A00000E0090AC3098B4201D3CB01C01A5241A1
:1016B00083098B4201D38B01C01A524143098B42EB
:1016C00001D34B01C01A524103098B4201D30B01D4
:1016D000C01A5241C3088B4201D3CB00C01A5241F9
:1016E00083088B4201D38B00C01A524143088B42BE
:1016F00001D34B00C01A5241884200D3401A5241D4
:10170000CFD201461046704708B500F001F808BD79
:101710007047FEE70121C206D20E9140AD4A11602A
:101720007047F0B540B2002821D5AB4C40B202075B
:10173000120F083A950804225543A74A40B20307FE
:101740001B0F083B9B0804267343D258FF238607D0
:10175000B60F08277E43B3409A438B01DBB286075E
:10176000B60F08277E43B340134363511AE09B4AE8
:1017700040B2830804246343D258FF238407A40F94
:1017800008256C43A3409A438B01DBB28407A40F66
:1017900008256C43A3401343904A40B284080425B3
:1017A0006C431351F0BDFEB500F032F900F0C9FAF8
:1017B00000780128FAD100F0CCFA01900198407924
:1017C000019989790902014368464180844800787B
:1017D000FE210140824801706846408881490860C6
:1017E00081480068012101437F48016000207F4952
:1017F00008800198C0787E490880019800797D4969
:1018000008607C4800687C490860802040007B4973
:1018100008800198C079012800D0AFE00020784905
:10182000088000207749088077480068FF218843B6
:101830007549086075480068FF218843734908604E
:10184000012004216A46517000216A461170FF216F
:101850006A46118100210A006B465B78D2B29A4237
:1018600062D2019AC9B25218527A0023DBB2022B1B
:1018700058DA02244C43E4186D462D786419D2B22C
:1018800004255D4316002E4135072D0FEDB2002DC6
:1018900046D0EDB2012D07D042D3032D1BD00BD380
:1018A000052D2CD021D33BE0564E37880126A6408B
:1018B0003E43544F3E8033E0514E37880126A640C8
:1018C0003E434F4F3E804F4E37880126A6403E4351
:1018D0004C4F3E8024E04C4E37680126A6403E43E4
:1018E000494F3E60002630001AE0484E3768012616
:1018F000A6403E43454F3E600026300010E0424E79
:1019000037680126A6403E433F4F3E603F4E376852
:101910000126A6403E433D4F3E6000263000FFE7D3
:101920005B1CA3E7491C96E7C0B2012810D19D4972
:10193000098889B2334A12880A40314909888A42A3
:10194000F5D19949098801220A4397490A801BE089
:101950002D490968954A1180944909882B4A1268D3
:101960000A43694609891140904A118090490968E3
:101970008E4A128811438E4A116005E08A48008819
:10198000012101438848018015480078C00701D42F
:1019900030BFF9E7684640884021FFF75FFE050049
:1019A000002420002900C0B2C9B288420DD200F044
:1019B000D2F900780128FAD1AB48E4B24021614362
:1019C000401800F0ABF9641CEBE7012000F0BBF914
:1019D000ECE6000000E100E01CED00E000E400E0C7
:1019E0004316002034000240300002401004004042
:1019F000280400402C040040240400400C04004053
:101A00003C1600203E160020080401400C04014052
:101A100080B511207C4908607C4800687B490860DB
:101A20007A4800687949086078480068A0218903ED
:101A300001437648016076480068802149040143EB
:101A400073480160724800688001FBD56F480068E8
:101A5000022101436D4801606C4800680C2101407F
:101A60000829F9D1814800688021890201437F4813
:101A700001607F4800687F4901437D4801607E48DE
:101A800000687E4901437C4801600520FFF742FE63
:101A900000210520FFF745FE0620FFF73BFE002151
:101AA0000620FFF73EFE0720FFF734FE0021072047
:101AB000FFF737FE6D480068012101436B48016064
:101AC00038486F49086068486E4908608A206E4946
:101AD00008600A20FFF71EFE00210A20FFF721FE02
:101AE0006A480068022101436848016000F0EAF892
:101AF00001BD00B566480068000506D5624800686B
:101B0000012101436048016022E0614800688005CE
:101B10001ED5254800885F490140234801805E4862
:101B200000688021490001435B4801605648006815
:101B300001218843544908605848008858490140A9
:101B400056480180574800780121014355480170EB
:101B500000BD00B55448006814490988084013497D
:101B60000988884216D10F48008880B24F490988F9
:101B700001404F48008881420CD10B480088012168
:101B80000143094801800A480068084909888843D8
:101B900007490860444800680449098808434249E5
:101BA000086000BD100000480004004040160020FE
:101BB0000004014000B53C4800683E4909880840DF
:101BC0003C490988884216D13B48008880B2374991
:101BD000098801403648008881420CD13748008886
:101BE00001210143354801803548006831490988A1
:101BF0008843334908602C4800682E490988084307
:101C00002949086000BD0000002002400410024085
:101C10000010024000B524480068264909880840A1
:101C200024490988884216D12348008880B21F4978
:101C3000098801401E48008881420CD11F48008855
:101C4000012101431D4801801D4800681949098888
:101C500088431B49086014480068164909880843EE
:101C60001149086000BD00009804002014100240D3
:101C700008000048FFFF00000C000048AAAA00006E
:101C8000380002403C000240300002401C1002407C
:101C900000000240FEFF0000040002400C0400406F
:101CA000FFFE000043160020140401403E160020F1
:101CB0003C160020401600201000004800040040A0
:101CC0000004014080B525480068012101432348F4
:101CD0000160234800681021014321480160214B25
:101CE000214A22492248FEF7D7FF01BD00B5002155
:101CF000C9B2402906DAC9B2425C1E4BC9B25A5475
:101D0000491CF5E71B494978012906D11A49097888
:101D100001220A4318490A70FFE700BD10B504000C
:101D20001648007800280BD011488078032807D186
:101D3000402221000E4800F0D8F800200F4908701A
:101D400010BD0D4870470C49097881430A4A11704B
:101D50007047084870470948704700001810024053
:101D6000000001407C0000202000002044000020F2
:101D700098140020601500204216002090000020DA
:101D800038B504000D00A8235B000022812120004B
:101D9000FEF71EFDB0235B00002201212000FEF7AC
:101DA00017FD0323402281212000FEF738FD032385
:101DB000402201212000FEF732FD4023614A01212B
:101DC0002000FEF72BFE002032BD38B504000D00C8
:101DD00081212000FEF7CDFD01212000FEF7C9FD85
:101DE000002032BDF8B506000D00002069460870DD
:101DF00000240027287860210140C9B200293CD086
:101E0000202970D16878022819D003280AD009281F
:101E10001BD00A280CD00B2828D16888C0B24A49A8
:101E2000086029E0012248493000FEF744FC23E025
:101E3000688880B2000AC0B2444908601CE00122F0
:101E400042493000FEF737FC16E001204049087097
:101E50006888404908706846E988017068460278D9
:101E600092B238493000FEF74AFC05E02900300004
:101E7000FEF7EAFB022037E035E06878062804D058
:101E80000A2826D00B282AD02DE0688880B2000AC4
:101E900080B2222808D1E888092801DB082400E064
:101EA000EC882D4807000DE0688880B2000A80B2F7
:101EB000212807D129480700E8880A2801DB0924DE
:101EC00000E0EC88220092B239003000FEF7F3FB0C
:101ED00009E0012222493000FEF7EDFB03E06888AB
:101EE000C0B21F4908600020F2BD70B505000E00A9
:101EF0001400A878032806D1A4B22300320081215F
:101F00002800FEF7C5FD002070BD020029200880D2
:101F10001448704700B50200C9B2012902D101205E
:101F2000114B1870002000BD38B504000D000548A5
:101F3000FFF7DCFE4023034A01212000FEF76EFD7F
:101F4000002032BDA0150020281600202C160020ED
:101F500045160020441600204427000826260008C5
:101F60002416002014260008900000200100002004
:101F70007047FEE770B582B00025002069460880F2
:101F8000BC48006869464880000400D470E1684697
:101F900040880007000F0600F6B2002E00D090E047
:101FA00068464088C00617D4B348006880B2B34979
:101FB0000140B1480160B24804002078FFF7E9F819
:101FC000A0612069A169401820610021AD48AE4A96
:101FD000126852689047D3E7AC480400A6480068EE
:101FE0006946088068460088000515D52078FFF707
:101FF000DDF8A061A26992B2A188A548FFF7E0F9D7
:102000009D480068A34901409B4801609D489E4946
:10201000096889688847B3E7684600880004AFD537
:10202000954800689B490140934801602078FFF77C
:10203000BDF8A061A069002809D0A26992B2A18868
:102040002069FFF7BDF92069A169401820610021CE
:102050008C488D4A1268126890478F49096889B286
:102060008E4A89180800E2683F2A0ED3E2685209B6
:102070001100227BD206D20E002A00D1491E89020D
:10208000802212020A43028008E0E268520811002E
:10209000227BD20700D5491C890201807649096854
:1020A0007F4A0A40100001008020400148400100A2
:1020B0008020800148407B49014389B26E4801601D
:1020C0005EE76D48F6B204217143405869460880C6
:1020D00068460088000464D56748F6B2042171435D
:1020E00040586C4901406448F6B204227243815062
:1020F0006448F6B228217143401868300400A07A81
:1021000000280DD12078FFF751F80500ADB2002D61
:102110002AD02A0092B2A1882069FFF751F923E062
:102120002078FEF720FF40040DD52078FFF7E4F873
:102130000500ADB2002D13D02A0092B2E1882069CB
:10214000FFF73EF90CE02078FFF7E6F80500ADB2A6
:10215000002D05D02A0092B221892069FFF730F9BD
:1021600000212078FFF7E6F8A069ADB24019A06120
:102170002069ADB2401920616069002803D0ADB27A
:10218000E068854206D221783E483F4A12681268CC
:10219000904706E063699BB2226921783948FEF7CF
:1021A0003DFC68460088000600D4E9E63548F6B2F2
:1021B000282171434018183004002F48F6B204213A
:1021C0007143405880B22D4901402B48F6B2042299
:1021D00072438150A07A00280DD12078FEF7D9FFF4
:1021E000A061A06900282AD0A26992B2A1882069C2
:1021F000FFF7C5F823E02078FEF7B5FE40060DD5C1
:102200002078FFF779F8A061A069002813D0A269AF
:1022100092B2E1882069FFF7B2F80CE02078FFF76E
:102220007BF8A061A069002805D0A26992B221893B
:102230002069FFF7A4F801212078FFF77BF82078C8
:10224000FEF7A7FFA0612069A169401820616069BD
:10225000002806D121780B480B4A12685268904733
:102260008EE66369226921780648FEF711FC87E64D
:1022700073BD0000445C0040005C00400F8F000014
:10228000B0140020981400201C000020001500202D
:10229000A81400208F0F0000505C00400660004032
:1022A0008FBF00008080000080B500206946088054
:1022B0003F48006869460880684600888021090216
:1022C00001403C48006889B2014201D0FFF752FE4C
:1022D000684600888021C90001403648006889B2FC
:1022E00001420BD034483249086034483449096807
:1022F0000969884700213148FEF796FC6846008846
:102300008021890101402B48006889B2014202D036
:102310002C4827490860684600888021490101400F
:102320002448006889B201420AD027482049086041
:1023300022482349096889698847002000F06DF820
:10234000684600888021090101401A48006889B266
:10235000014209D01D481649086018481849096803
:102360004969884700F038F868460088802189006C
:1023700001401048006889B2014207D014480C4956
:1023800008600E480E490968C96888476846008891
:102390008021490001400748006889B2014205D008
:1023A0000C4803490860072000F037F801BD000021
:1023B000445C004020160020FFFB00009814002021
:1023C0001C000020FFDF0000FFEF0000FFF700000F
:1023D000FFFD0000FFFE00004649096808000100FB
:1023E0000820084380B24349086042490968080050
:1023F00001000420084380B23E49086070473D490F
:102400000968080001003C48084080B2394908606A
:10241000BF210902374A1160704738B50400E4B2A1
:10242000072C01D03548047034480078002808D0C3
:1024300002281DD013D304282ED020D305283BD04A
:1024400053E02F480068002805D1FFF7D8FF062089
:102450002A49087002E005202849087048E0FFF783
:10246000CEFF0420254908700120254908603FE07F
:1024700002202249487003202049087038E01F4894
:102480004078401E1D4948701C484078002802D101
:1024900004201A4908702BE016480068050028003F
:1024A00010250543ADB21348056005201349087097
:1024B0000A20124948701BE010484078401E0F491E
:1024C00048700E48407800280ED10A480068050080
:1024D00028000C4D0540ADB20648056006200749AE
:1024E000087000200649086002E0062003490870D1
:1024F00031BD0000405C0040FBFF000030160020B2
:1025000034160020EFFF0000194800680121014344
:1025100017480160174800681749014015480160D5
:1025200013480068154901401148016010480068CF
:10253000134901400E4801600E48006811490140EE
:102540000C480160104800680F2188430E4908605C
:102550000E4800680E4901400C4801600D480068B3
:10256000012188430B49086000200B49086070472F
:1025700000100240041002400CB8FF08FFFFF6FEF6
:10258000FFFFFBFFFFFFC0FF2C1002403010024096
:102590002CFEFFFF341002400810024070B40121ED
:1025A000002213E00468001D0C4202D04D466D1E4F
:1025B00064192260241D1B1F042BFAD225009E07DC
:1025C00001D52280AD1C0B4000D02A700368001D8D
:1025D000002BE7D170BC704730B5016841184468E2
:1025E00062088A188368E40701D54C461B1991429A
:1025F00001D10C3030BD0C7864B2491C0D78491CF7
:102600001D705B1C002C02D5641CF9D1EFE7641E21
:10261000F4D5ECE709022900010100C032090400E9
:102620000002030000000921110100012208000737
:10263000058103400001070501034000010000007F
:1026400010B5074979441831064C7C44163404E02F
:10265000081D0A68891888470100A142F8D110BDF9
:10266000080000002400000035FFFFFFB01100004B
:10267000980400200000000061FFFFFF000100003F
:10268000F200000000000020704700B5FEE7704730
:102690007047704780B5FFF707FE01BD80B5FFF7B3
:1026A00028FA01BD00F00BF8002801D0FFF7C8FFA1
:1026B0000020C046C046FFF776F800F002F801207F
:1026C000704780B500F002F801BDFEE707463846C6
:1026D00000F002F8FBE7FEE780B5C046C046024ABC
:1026E00011001820ABBEFBE7260002001201000219
:1026F00000000040830410A2000201020301000058
:1027000048494420496E7465726661636500000043
:10271000014880470148004709250008392700087B
:1027200043686970264469700000000048494420ED
:10273000436F6E6669670000C046C046C046C0462B
:10274000FFF7B0FF06FF000901A101C043617264F9
:102750004C61620004030904FEE7FEE7FEE7FEE7C2
:10276000FEE7FEE7FEE7FEE7FEE7FEE7FEE7FEE741
:10277000FEE7FEE7FEE7FEE7FEE7FEE71B330D00A0
:1027800008B90D0008E10C0008F90E0008850E00DC
:1027900008E10E0008CD0E0008FD000C20811D0090
:1027A00008CB1D0008E51D0008FC000B6D1F00088C
:1027B000151F0008291F0008FC00210B1F00081529
:1027C0001500081F1500083D1500082915000851BF
:1027D0001500085B1500086F1500081A03E60014C1
:1027E0008307000885070008870700088907000895
:0527F0008B0700080149
:04000005080027398F
:00000001FF
